:107800000C942A3C0C94473C0C94473C0C94473C09
:107810000C94473C0C94473C0C94473C0C94473CDC
:107820000C94473C0C94473C0C94473C0C94473CCC
:107830000C94473C0C94473C0C94473C0C94473CBC
:107840000C94473C0C94473C0C94473C0C94473CAC
:107850000C94473C11241FBECFE5D8E0DEBFCDBF5E
:1078600010E0A0E6B0E0ECE1FEE702C005900D926A
:10787000A236B107D9F711E0A2E6B0E001C01D922F
:10788000AD36B107E1F70E94043D0C940D3F0C9416
:10789000003C5D9BFECF8CB90895482F14C0AF9A71
:1078A00020ED37E080E991E00197F1F72150304079
:1078B000C9F7AF9820ED37E080E991E00197F1F743
:1078C00021503040C9F7415050F70895EF92FF9290
:1078D0000F931F93EE24FF24870118C00894E11C26
:1078E000F11C011D111D81E4E81682E4F8068FE009
:1078F000080780E0180718F081E00E944D3CB59918
:1079000005C0E0916400F091650009955F9BE6CFAA
:107910008CB190E01F910F91FF90EF9008950E941D
:10792000663C803249F45D9BFECF84E18CB95D9B5F
:10793000FECF80E18CB90895809163008F5F8093C2
:107940006300853029F4E0916400F09165000995A9
:1079500008951F93182F0E94663C803261F45D9B4E
:10796000FECF84E18CB95D9BFECF1CB95D9BFECF41
:1079700080E18CB90CC0809163008F5F80936300BD
:10798000853029F4E0916400F091650009951F911C
:1079900008951F93182F02C00E94663C1150E0F713
:1079A0001F9108950E94663C5D9BFECF8CB9813685
:1079B00010F0875503C0803318F0805390E008958D
:1079C00090E008951F930E94D23C182F0E94D23C51
:1079D0001295107F180F812F90E01F910895982F16
:1079E00092959F709A3010F0995A01C0905D8F70F7
:1079F0008A3010F0895A01C0805D5D9BFECF9CB932
:107A00005D9BFECF8CB908950F931F93CF93DF93A7
:107A100000001BB888E18AB986E880BD10BC80E10F
:107A200089B98F9A979A87B387BB88B3806E88BBD2
:107A3000A79A81E00E944D3C0E94663C803309F485
:107A40004CC0813341F50E94663C803209F0C3C1CD
:107A50005D9BFECF84E18CB95D9BFECF81E48CB948
:107A60005D9BFECF86E58CB95D9BFECF82E58CB930
:107A70005D9BFECF80E28CB95D9BFECF89E48CB923
:107A80005D9BFECF83E58CB95D9BFECF80E58CB915
:107A90005D9BFECF97C1803439F40E94663C8638E6
:107AA000E0F00E94663C19C0813491F40E94663C6B
:107AB000803809F43FC0813811F481E089C18238EF
:107AC00011F480E185C1883909F081C183E080C16A
:107AD000823431F484E10E94C93C0E948F3CACCFD7
:107AE000853411F485E0F7CF8035B9F38235A9F3F9
:107AF000813599F3853549F40E94663C8093660090
:107B00000E94663C80936700E8CF8635C9F40E94E6
:107B1000663C803389F40E94663C0E94663C182FC4
:107B20000E94663C112311F48EE152C1113011F410
:107B300085E94EC182E04CC183E00E94C93C47C147
:107B4000843609F0CFC00E94663C809369010E9490
:107B5000663C8093680180916C018E7F80936C01FC
:107B60000E94663C853429F480916C018160809389
:107B70006C01C0E0D0E007C00E94663CFE01E859FD
:107B8000FF4F808321968091680190916901C81709
:107B9000D90790F30E94663C803209F01CC18091A5
:107BA0006C0180FF2BC08091660090916700880F68
:107BB000991F909367008093660020E030E016C024
:107BC000F901E859FF4F8081A0916600B0916700EC
:107BD000082E0E94013F80916600909167000196F7
:107BE00090936700809366002F5F3F4F80916801FC
:107BF000909169012817390718F36DC080916700CB
:107C000087FF04C081E080936B0102C010926B017A
:107C10008091660090916700880F991F909367008C
:107C2000809366008091680180FF09C0809168019F
:107C30009091690101969093690180936801F8948D
:107C4000E199FECF1127E0916600F0916700C8E648
:107C5000D0E08091680190916901103091F4009119
:107C6000570001700130D9F303E000935700E89505
:107C70000091570001700130D9F301E100935700E2
:107C8000E895099019900091570001700130D9F3DF
:107C900001E000935700E8951395103498F01127F0
:107CA0000091570001700130D9F305E000935700AF
:107CB000E8950091570001700130D9F301E100937C
:107CC0005700E8953296029709F0C7CF103011F0AF
:107CD0000296E5CF11245D9BFECF84E18CB95D9BBC
:107CE000FECF70C0843709F055C00E94663C809377
:107CF00069010E94663C80936801809166009091C2
:107D00006700880F991F90936700809366000E9418
:107D1000663C90916C01853411F4916001C09E7FA6
:107D200090936C010E94663C803209F085CE5D9B89
:107D3000FECF84E18CB960916801709169018091F6
:107D40006C01182F117082702091660030916700CD
:107D5000F90140E050E012C0112339F0DF010E9428
:107D6000F93E902D5D9BFECF05C0882321F49491B0
:107D70005D9BFECF9CB94F5F5F4F3196461757070B
:107D800059F7260F371F30936700209366005D9BDD
:107D9000FECF18C08537C9F40E94663C8032D9F402
:107DA0005D9BFECF84E18CB95D9BFECF8EE18CB9EB
:107DB0005D9BFECF85E98CB95D9BFECF82E08CB9DF
:107DC0005D9BFECF80E18CB937CE863721F480E011
:107DD0000E94A93C31CE809163008F5F8093630045
:107DE000853009F029CEE0916400F0916500099595
:107DF00023CEE199FECFBFBBAEBBE09A11960DB288
:107E00000895E199FECFBFBBAEBB0DBA11960FB678
:0C7E1000F894E29AE19A0FBE0895FFCFAB
:027E1C008000E4
:040000030000780081
:00000001FF
