:020000021000EC
:10F000000C9446F80C9465F80C9465F80C9465F82B
:10F010000C9465F80C9465F80C9465F80C9465F8FC
:10F020000C9465F80C9465F80C9465F80C9465F8EC
:10F030000C9465F80C9465F80C9465F80C9465F8DC
:10F040000C9465F80C9465F80C9465F80C9465F8CC
:10F050000C9465F80C9465F80C9465F80C9465F8BC
:10F060000C9465F80C9465F80C9465F80C9465F8AC
:10F070000C9465F80C9465F80C9465F80C9465F89C
:10F080000C9465F80C9465F80C9465F811241FBE77
:10F09000CFEFD0E1DEBFCDBF11E0A0E0B1E0E2E014
:10F0A000F9EF01E00BBF02C007900D92A230B1074B
:10F0B000D9F712E0A2E0B1E001C01D92AC30B10777
:10F0C000E1F70E948AF90C9480FC0C9400F8982FC8
:10F0D00080910101813051F0823009F008958091D2
:10F0E0009B0085FFFCCF90939C0008955D9BFECF15
:10F0F0009CB908951F93982F85958595859585953D
:10F100008A304CF0282F295A892F8F708A304CF082
:10F11000182F195A08C0282F205D892F8F708A3028
:10F12000BCF7182F105D822F0E9467F8812F0E9474
:10F1300067F81F910895982F209101010EC021308A
:10F1400049F0223051F480919B0087FFFCCF8091E1
:10F150009C0003C05F9BFECF8CB1915080F7089557
:10F16000482F14C0AB9A20ED37E080E991E0019779
:10F17000F1F721503040C9F7AB9820ED37E080E936
:10F1800091E00197F1F721503040C9F7415050F715
:10F190000895EF92FF920F931F93809101018130A8
:10F1A00049F1823019F080E090E04DC0EE24FF2458
:10F1B000870180919B0087FD17C00894E11CF11C1A
:10F1C000011D111D81E4E81682E4F8068FE00807AE
:10F1D00080E0180770F3E0910301F09104010995B4
:10F1E00080919B0087FFE9CF80919C00992787FD44
:10F1F000909529C0EE24FF2487015F991BC00894D5
:10F20000E11CF11C011D111D81E4E81682E4F806E1
:10F210008FE0080780E0180790F49C99EECFAD9A34
:10F22000A59AA39AAB9AE0910301F0910401099584
:10F230005F9BE5CF8CB1992787FD909504C081E055
:10F240000E94B0F8EACF1F910F91FF90EF900895C0
:10F250000E94C9F8803271F0809102018F5F809323
:10F260000201853009F00895E0910301F091040155
:10F270000995089584E10E9467F880E10E9467F88B
:10F2800008951F93182F0E94C9F8803269F0809169
:10F2900002018F5F80930201853079F4E0910301D0
:10F2A000F0910401099509C084E10E9467F8812F5B
:10F2B0000E9467F880E10E9467F81F9108951F93EC
:10F2C0000E94C9F8182F0E9467F8113634F01755BC
:10F2D000812F992787FD90950CC0103334F010537F
:10F2E000812F992787FD909504C0812F992787FD4D
:10F2F00090951F9108951F930E945FF9182F0E9407
:10F300005FF91295107F180F812F992787FD90952F
:10F310001F9108950F931F93CF93DF93000081E017
:10F320008093010180E189B9109290001BB888E9AF
:10F330008AB986E880939500A39A0E94C9F8803321
:10F34000C9F18133D1F1803409F457C0813409F413
:10F350005DC0823409F46CC0853409F46FC0803517
:10F3600049F1823539F1813529F1853509F46CC0CF
:10F37000863509F474C0843609F47DC0843709F4F5
:10F38000DDC0853709F450C1863709F44DC081329C
:10F3900009F463C1809102018F5F8093020185307F
:10F3A00061F6E0910301F091040109950E94C9F80A
:10F3B000803339F60E9428F9C0CF0E94C9F8803204
:10F3C00049F784E10E9467F881E40E9467F886E5C6
:10F3D0000E9467F882E50E9467F880E20E9467F861
:10F3E00089E40E9467F883E50E9467F880E50E943F
:10F3F00067F880E10E9467F8A0CF0E94C9F88638BC
:10F40000C8F20E94C9F80E9428F997CF0E94C9F853
:10F41000803809F401C1813809F41BC1823809F42C
:10F420005AC1883909F4FCC080E00E9441F985CFB7
:10F4300084E10E949BF80E9428F97FCF85E00E941A
:10F440009BF80E9428F979CF0E94C9F880930501A2
:10F450000E94C9F8809306010E9428F96ECF0E948D
:10F46000C9F8803309F4CBC083E00E949BF880E0A8
:10F470000E9441F962CF0E94C9F8809308020E945D
:10F48000C9F88093070280910B028E7F80930B0254
:10F490000E94C9F8853409F435C180910702909122
:10F4A0000802892B81F0C0E0D0E00E94C9F8FE017B
:10F4B000E95FFE4F808321968091070290910802B8
:10F4C000C817D90790F30E94C9F8803209F062CFBB
:10F4D00080910B0280FF28C1A0910501B091060127
:10F4E000AA0FBB1FB0930601A093050180910702EC
:10F4F00090910802892BD9F020E030E0F901E95F12
:10F50000FE4F8081082E0E9474FCA0910501B091ED
:10F5100006011196B0930601A09305012F5F3F4F9E
:10F5200080910702909108022817390738F384E187
:10F530000E9467F880E10E9467F8FFCE0E94C9F838
:10F54000809308020E94C9F8809307022091050168
:10F550003091060137FDE2C080910B028D7F8093D0
:10F560000B02220F331F30930601209305010E94E6
:10F57000C9F8853409F4CCC080910B028E7F80934A
:10F580000B020E94C9F8803209F0D7CE84E10E94B4
:10F5900067F88091070290910802892B09F455C001
:10F5A000C0E0D0E0A0910501B091060115C0FD01B9
:10F5B00084910E9467F8A0910501B091060111960F
:10F5C000B0930601A09305012196809107029091C6
:10F5D0000802C817D907C8F580910B0280FD7FC0CB
:10F5E00081FFE5CFCD01A0E0B0E080509040AF4F6B
:10F5F000BF4FABBFFC0187910E9467F8DCCF0E9430
:10F60000C9F80E94C9F8182F0E94C9F8112309F4FB
:10F61000FEC0113009F472C082E00E9441F98DCE23
:10F6200083E00E9441F989CE0E94C9F8803209F036
:10F63000B1CE84E10E9467F88EE10E9467F887E905
:10F640000E9467F882E00E9467F880E10E9467F8F4
:10F6500074CE81E00E9441F970CE0E94C9F88132D7
:10F6600009F06BCE0E94C9F8813209F066CEA39AE8
:10F67000AB98109209028AE00E9467F88DE00E9420
:10F6800067F88AE30E9467F880E20E9467F80E94A8
:10F69000C9F8182F0E9467F8143709F4BCC0123754
:10F6A00009F4C9C0173709F4DDC0153759F012360F
:10F6B00009F4F0C01A36F9F6E0910301F091040163
:10F6C0000995D9CF0E94C9F80E9467F80E94C9F82D
:10F6D0000E9467F8F7CF80E10E9441F92ECE0E9488
:10F6E0006CFC802D0E9467F8A0910501B091060185
:10F6F0001196B0930601A093050166CF87E90E9499
:10F7000041F91BCE80910B02816080930B02C5CE24
:10F7100080910B02816080930B0233CF80910B02AA
:10F72000826080930B021DCF8091060187FD7AC015
:10F7300010920A0280910A028BBF8091050190917C
:10F740000601880F991F909306018093050180910F
:10F75000070280FF09C0809107029091080201967C
:10F760009093080280930702F894E199FECF112745
:10F77000E0910501F0910601C7E0D1E08091070218
:10F7800090910802103091F40091680001700130EE
:10F79000D9F303E000936800E895009168000170D8
:10F7A0000130D9F301E100936800E89509901990C0
:10F7B0000091680001700130D9F301E00093680006
:10F7C000E8951395103898F01127009168000170A2
:10F7D0000130D9F305E000936800E89500916800D6
:10F7E00001700130D9F301E100936800E895329689
:10F7F000029709F0C7CF103011F00296E5CF11241F
:10F8000084E10E9467F880E10E9467F896CD8EE15E
:10F810000E9441F992CD9B9B09C0AB9881E30E9465
:10F8200067F829CF81E080930A0284CFAB9A80E306
:10F830000E9467F820CF0E94C9F80E9467F80E94D2
:10F840007BF9082F0E947BF9182F8DE30E9467F83F
:10F85000802F90E0F82FEE27E10FF11D80810E94AC
:10F860007AF809CF0E94C9F80E9467F80E947BF9D4
:10F87000082F0E947BF9182F0E94C9F80E9467F890
:10F880000E947BF9202F30E0F22FEE27E10FF11DCF
:10F890008083F1CE82E60E9467F885E70E9467F8D0
:10F8A00083E70E9467F880E885BF10926D00109290
:10F8B0006C00809100118091011180910211809162
:10F8C0000311E4E0F1E181913097E9F7E0E0F1E143
:10F8D00081913097D9F3F7CFE199FECFBFBBAEBB93
:10F8E000E09A11960DB20895E199FECFBFBBAEBB71
:10F8F0000DBA11960FB6F894E29AE19A0FBE0895E8
:02F90000FFCF37
:02F90200800182
:040000031000F000F9
:00000001FF
