:020000021000EC
:10F000000C9446F80C9465F80C9465F80C9465F82B
:10F010000C9465F80C9465F80C9465F80C9465F8FC
:10F020000C9465F80C9465F80C9465F80C9465F8EC
:10F030000C9465F80C9465F80C9465F80C9465F8DC
:10F040000C9465F80C9465F80C9465F80C9465F8CC
:10F050000C9465F80C9465F80C9465F80C9465F8BC
:10F060000C9465F80C9465F80C9465F80C9465F8AC
:10F070000C9465F80C9465F80C9465F80C9465F89C
:10F080000C9465F80C9465F80C9465F811241FBE77
:10F09000CFEFD0E1DEBFCDBF11E0A0E0B1E0E0EF07
:10F0A000F8EF01E00BBF02C007900D92A230B1074C
:10F0B000D9F712E0A2E0B1E001C01D92AC30B10777
:10F0C000E1F70E9485F90C9476FC0C9400F8982FD7
:10F0D00080910101813019F0823029F008955D9B03
:10F0E000FECF9CB9089580919B0085FFFCCF909343
:10F0F0009C0008951F93982F9595959595959595B6
:10F10000905D8F708A3054F4182F105D892F0E9403
:10F1100067F8812F0E9467F81F910895182F195AD8
:10F12000892F0E9467F8812F0E9467F81F91089528
:10F13000982F20910101992339F0213031F02230AC
:10F1400049F091509923C9F708955F9BFECF8CB188
:10F150009150F8CF80919B0087FFFCCF80919C005D
:10F160009150F0CF40E951E08823A1F0AB9A20ED17
:10F1700037E0FA013197F1F721503040D1F7AB98E1
:10F1800020ED37E0FA013197F1F721503040D1F707
:10F19000815061F708959C990895AD9AA59AA39A14
:10F1A000AB9AE0910301F091040109950895EF9263
:10F1B000FF920F931F9380910101813051F18230B2
:10F1C00031F080E01F910F91FF90EF900895EE24B1
:10F1D000FF24870180919B0087FD14C00894E11CE7
:10F1E000F11C011D111D81E4E81682E4F8068FE090
:10F1F000080780E0180770F30E94CBF880919B000D
:10F2000087FFECCF80919C001F910F91FF90EF90B2
:10F2100008955F991DC0EE24FF24870104C00E9459
:10F22000CBF85F9915C00894E11CF11C011D111D5C
:10F2300081E4E81682E4F8068FE0080780E018070A
:10F2400070F381E00E94B2F80E94CBF85F9BEBCF95
:10F250008CB11F910F91FF90EF9008951F930E9422
:10F26000D7F8182F0E9467F8113634F410330CF0D9
:10F270001053812F1F9108951755812F1F910895C5
:10F280001F930E942EF9182F0E942EF91295107FBD
:10F29000810F1F9108950E94D7F8803259F081E0C4
:10F2A0000E94B2F8809102018F5F80930201853045
:10F2B00041F0089584E10E9467F880E10E9467F8B8
:10F2C00008950E94CBF808951F93182F0E94D7F835
:10F2D000803261F081E00E94B2F8809102018F5F7C
:10F2E00080930201853069F01F91089584E10E94A6
:10F2F00067F8812F0E9467F880E10E9467F81F91EC
:10F3000008950E94CBF81F910895CF92DF92EF925B
:10F31000FF920F931F93CF93DF93000081E08093C0
:10F32000010180E189B9109290001BB888E98AB97F
:10F3300086E880939500A39A0E94D7F88033A1F1C4
:10F340008133A9F18034D9F1813409F441C0823488
:10F3500009F450C0853409F453C0803529F1823551
:10F3600019F1813509F1853509F46CC0863509F448
:10F3700074C0843609F48DC0843709F4F3C085372E
:10F3800009F457C1863791F1813209F46BC180913C
:10F3900002018F5F80930201853071F60E94CBF8E5
:10F3A0000E94D7F8803361F60E944BF9C5CF0E94C6
:10F3B000D7F8803259F181E00E94B2F8E8CF0E947C
:10F3C000D7F8863888F30E94D7F80E944BF9B4CF5B
:10F3D0000E94D7F8803809F458C0813809F425C153
:10F3E000823809F43BC1883909F4B8C080E00E9432
:10F3F00064F9A2CF84E10E9498F80E944BF99CCF57
:10F4000085E00E9498F80E944BF996CF84E10E9413
:10F4100067F881E40E9467F886E50E9467F882E554
:10F420000E9467F880E20E9467F889E40E9467F80A
:10F4300083E50E9467F880E50E9467F880E10E94FA
:10F4400067F87ACF0E94D7F8809305010E94D7F819
:10F45000809306010E944BF96FCF0E94D7F880334A
:10F4600039F083E00E9498F880E00E9464F964CF4C
:10F470000E94D7F80E94D7F8182F0E94D7F81123BE
:10F4800009F4BCC1113009F430C182E00E9464F972
:10F4900053CF0E94D7F8809308020E94D7F8809338
:10F4A000070280910B028E7F80930B020E94D7F897
:10F4B000853409F41EC18091070290910802892BBE
:10F4C00089F000E010E00E94D7F8F801E95FFE4FF4
:10F4D00080830F5F1F4F80910702909108020817E9
:10F4E000190788F30E94D7F8803209F064CF809121
:10F4F0000B0280FF10C12091050130910601220FFF
:10F50000331F3093060120930501809107029091EB
:10F510000802892BE1F000E010E0F801E95FFE4FFE
:10F52000C90160810E9469FC2091050130910601AA
:10F530002F5F3F4F30930601209305010F5F1F4F50
:10F5400080910702909108020817190730F384E1AF
:10F550000E9467F880E10E9467F8EECE83E00E9487
:10F5600064F9EACE0E94D7F8809308020E94D7F887
:10F5700080930702209105013091060137FDBFC03D
:10F5800080910B028D7F80930B02220F331F3093EB
:10F590000601209305010E94D7F8853409F4B5C00F
:10F5A00080910B028E7F80930B020E94D7F88032ED
:10F5B00009F0C2CE84E10E9467F880910702909121
:10F5C0000802892B09F446C000E010E020910501F3
:10F5D0003091060117C0F90184910E9467F82091CB
:10F5E0000501309106012F5F3F4F309306012093B4
:10F5F00005010F5F1F4F80910702909108020817C5
:10F60000190740F580910B0280FD5FC081FFE3CFB9
:10F61000C901A0E0B0E080509040AF4FBF4FABBFFA
:10F62000FC0187910E9467F8DACF81E00E9464F9BB
:10F6300083CE0E94D7F8803209F0BDCE84E10E94CB
:10F6400067F88EE10E9467F887E90E9467F882E018
:10F650000E9467F880E10E9467F86ECE80E10E9408
:10F6600064F96ACE0E94D7F8813209F065CE0E9413
:10F67000D7F8813209F060CEA39AAB9810920902B4
:10F680008AE00E9467F88DE00E9467F88AE30E9492
:10F6900067F880E20E9467F80E94D7F8182F0E944E
:10F6A00067F8143709F4BBC0123709F4C4C0173720
:10F6B00009F4D7C0153709F4A9C0123609F4E8C017
:10F6C0001A36F1F60E94CBF8DBCFC9010E9461FC2B
:10F6D0000E9467F820910501309106012F5F3F4F8E
:10F6E000309306012093050184CF87E90E9464F9D5
:10F6F00023CE80910B02816080930B02DCCE80913F
:10F700000B02826080930B0240CF80910B028160DC
:10F7100080930B024ACF8091060187FD73C010923F
:10F720000A0280910A028BBF809105019091060127
:10F73000880F991F9093060180930501809107021D
:10F7400080FF09C080910702909108020196909372
:10F75000080280930702F894E199FECF1127E09107
:10F760000501F0910601C7E0D1E080910702909178
:10F770000802103091F40091680001700130D9F353
:10F7800003E000936800E895009168000170013083
:10F79000D9F301E100936800E89509901990009170
:10F7A000680001700130D9F301E000936800E8952A
:10F7B0001395103898F011270091680001700130FE
:10F7C000D9F305E000936800E895009168000170A6
:10F7D0000130D9F301E100936800E8953296029771
:10F7E00009F0C7CF103011F00296E5CF112484E163
:10F7F0000E9467F880E10E9467F89ECD8EE10E942A
:10F8000064F99ACD81E080930A028BCF0E94D7F8E9
:10F810000E9467F80E94D7F80E9467F8F7CF9B9B79
:10F8200005C0AB9881E30E9467F82ACFAB9A80E3CA
:10F830000E9467F825CF0E94D7F80E9467F80E94BF
:10F8400040F9182F0E9440F9082F8DE30E9467F8B5
:10F85000F12EEE24F701E00FF11D80810E947AF86D
:10F860000FCF0E94D7F80E9467F80E9440F9182F26
:10F870000E9440F9082F0E94D7F80E9467F80E9462
:10F8800040F9D12ECC24F601E00FF11D8083F8CE93
:10F8900082E60E9467F885E70E9467F883E70E9486
:10F8A00067F880E885BF10926D0010926C0080E0D0
:10F8B00091E1FC01819180E091E13097D1F3CF019A
:10F8C000F8CFE199FECF9FBB8EBBE09A99278DB30D
:10F8D0000895262FE199FECF9FBB8EBB2DBB0FB69F
:10F8E000F894E29AE19A0FBE01960895F894FFCF3A
:02F8F000800195
:040000031000F000F9
:00000001FF
